:020000040800F2
:10000000E83C0020690200087F3C000841390008F4
:100010007D3C0008A5050008C75F0008000000003F
:100020000000000000000000000000000740000881
:100030009306000800000000054000080940000881
:10004000830200088302000883020008830200087C
:10005000830200088302000883020008830200086C
:1000600083020008830200088302000825060008B6
:100070008302000883020008310600083D060008DC
:10008000830200088302000861040008355F00084D
:100090004D5F0008A90500088302000883020008DC
:1000A00083020008A94000088302000883020008B8
:1000B0008302000800000000000000008302000826
:1000C0008302000883020008830200080000000089
:1000D00083020008D9480008830200088302000850
:1000E0008302000883020008830200080000000069
:1000F0000000000000000000000000000000000000
:100100000000000000000000000000008302000862
:100110000000000000000000830200080000000052
:1001200000000000000000000000000000000000CF
:1001300000000000000000000000000000000000BF
:100140008302000883020008000000000000000095
:10015000000000000000000000000000000000009F
:100160008302000883020008415F0008595F00080D
:1001700083020008000000000000000000000000F2
:10018000000000008302000800F002F800F05CF8B4
:100190000AA090E8000C82448344AAF10107DA45E2
:1001A00001D100F051F8AFF2090EBAE80F0013F0D8
:1001B000010F18BFFB1A43F0010318470C5F000042
:1001C0002C5F00000A444FF0000C10F8013B13F0C4
:1001D000070408BF10F8014B1D1108BF10F8015BA0
:1001E000641E05D010F8016B641E01F8016BF9D193
:1001F00013F0080F1EBF10F8014BAD1C0C1B09D1EA
:100200006D1E58BF01F801CBFAD505E014F8016B5B
:1002100001F8016B6D1EF9D59142D6D370470000ED
:100220000023002400250026103A28BF78C1FBD8FF
:10023000520728BF30C148BF0B6070471FB505F09B
:1002400021FF1FBD10B510BD00F0CFF81146FFF71C
:10025000F5FF05F0C9FE00F0EDF803B4FFF7F2FF7B
:1002600003BC00F0F5F80000094880470948004742
:10027000FEE7FEE7FEE7FEE7FEE7FEE7FEE7FEE756
:10028000FEE7FEE704480549054A064B70470000B3
:100290009940000889010008E80C0020E83C002093
:1002A000E81C0020E81C002053EA020C00F06980E2
:1002B0002DE9F04B4FF00006002B1FBFB3FA83F57A
:1002C00003FA05F424FA05F65E4012BF1643B2FAAB
:1002D00082F502FA05F4C5F120051EBF22FA05FCDD
:1002E00044EA0C04203556EA044C4FEA144418BF83
:1002F000641C4FF000084FF00009904271EB030CB2
:1003000039D3002919BFB1FA81F701FA07F6B0FA1B
:1003100080F700FA07F6C7F120071EBF20FA07FC96
:1003200046EA0C062037B6FBF4FCA7EB0507103FA6
:1003300007F01F0BCBF120060CFA0BFB2CFA06F68C
:1003400044BFB3460026202FA4BF5E464FF0000BEB
:100350005BEA060C08BF4FF0010B19EB0B09ABFB76
:10036000027C48EB0608C01B06FB02CC0BFB03CC4F
:1003700071EB0C01C1E70B46024641464846BDE819
:10038000F08B13B54FF000004FF00001AFF3008089
:10039000BDE81C4070474FF0000200B5134694467C
:1003A0009646203922BFA0E80C50A0E80C50B1F1CD
:1003B0002001BFF4F7AF090728BFA0E80C5048BFE1
:1003C0000CC05DF804EB890028BF40F8042B08BF7F
:1003D000704748BF20F8022B11F0804F18BF00F87B
:1003E000012B7047704770477047754600F02CF836
:1003F000AE4605006946534620F00700854618B012
:1004000020B5FFF73FFFBDE820404FF000064FF05A
:1004100000074FF000084FF0000B21F00701AC4639
:10042000ACE8C009ACE8C009ACE8C009ACE8C00958
:100430008D46704710B50446AFF300802046BDE8F6
:100440001040FFF70ABF000000487047840C0020EE
:1004500001491820ABBEFEE72600020070470000ED
:10046000014800F007BB0000B80100200146406AC7
:10047000026C12F0500F03D0806B026B08461047DD
:10048000016C41F4007101640168C96811F4406FA6
:100490000CD1417E51B9016C21F480710164016C71
:1004A000C90403D4016C41F00101016400F0DEBA1B
:1004B000406A016C41F040010164416C41F004016B
:1004C000416400F0D5BA406A00F0D1BA70B5044674
:1004D0000068816801F0030101292AD10168C90778
:1004E00027D0816801F00D01012914D1816841F004
:1004F0000201816021680320086001F0D5F90546FA
:1005000013E000BF01F0D0F9401B02280DD920688C
:100510008068C00709D0206C40F010002064606C37
:1005200040F001006064012070BD20688068C00751
:10053000E8D1002070BD000070B5044600688168F5
:1005400001F00301012902D10168C90725D18168A1
:10055000134A114212D1816841F00101816001F01A
:10056000A3F9054614E000BF01F09EF9401B0228E4
:100570000ED920680068C043C00709D0206C40F045
:1005800010002064606C40F001006064012070BDC8
:1005900020680068C043C007E6D1002070BD00009D
:1005A0003F000080FEE70000014800F04EBD000063
:1005B0004C020020002070470020704710B5002238
:1005C0000549064804F080FA03490448403904F01C
:1005D00075FA002010BD0000500700202C040020F8
:1005E00010B50146034804F069FA024804F04AFADB
:1005F000002010BD2C040020094A10B5D2F8B82202
:10060000D2F814220AB1012010BD0A46014604485E
:1006100004F05AFABDE81040014804F0B3BA0000F3
:100620002C040020014800F069BF000008020020EF
:10063000014800F063BF0000A4030020014800F05F
:100640005DBF0000E8030020054A01681144142240
:10065000B1FBF2F1890001640249C16370470000F7
:10066000F8FFFDBF0000024030B590F84050012473
:10067000AC40C56B6C60046863604368102B036812
:1006800003D099600068C26030BD9A600068C160A4
:1006900030BD704772B6FEE72DE9F041044690F890
:1006A0003C00884601280AD0012584F83C502046A9
:1006B000FFF70CFF06004FF0000703D037E00220E1
:1006C000BDE8F08125642068816821F08041816067
:1006D000B8F1010F04D12068816841F08041816048
:1006E0002068816841F00041816001F0DDF8054635
:1006F00013E000BF01F0D8F8401B0A280DD920688C
:100700008068002809DA206C20F0020040F0100018
:10071000206484F83C700120D2E7206880680028BB
:10072000E8DB206C20F0020040F00100206484F837
:100730003C703046C4E77047704770477047000010
:10074000F0B594B00025009590F83C202E46012A83
:1007500019D0012780F83C7003689A6852077DD44D
:100760004A681F24052A11D2D3F830C002EB420296
:10077000520094402CEA040C0C6894404CEA040C9F
:10078000C3F830C035E0022014B0F0BD0A2A0FD201
:10079000D3F834C0521F02EB4202520094402CEABC
:1007A000040C0C6894404CEA040CC3F834C020E0FC
:1007B0000F2A0FD2D3F838C00A3A02EB4202520095
:1007C00094402CEA040C0C6894404CEA040CC3F8E6
:1007D00038C00EE0D3F83CC00F3A02EB42025200A0
:1007E00094402CEA040C0C6894404CEA040CC3F8C6
:1007F0003CC00268936813F00C0F4FF0070373D1ED
:100800000C680A2C11D3D2F818C00A3C04EB44043B
:1008100003FA04FE2CEA0E0CD1F808E00EFA04FEEE
:100820004CEA0E0CC2F818C00FE0D2F814C004EB6A
:10083000440403FA04FE2CEA0E0CD1F808E00EFA88
:1008400004FE4CEA0E0CC2F814C002684C69D2F8DF
:100850000CC0CCF3C10C4FEA4C0C00E0CDE004FA24
:100860000CF4D1F810E0DFF8F4C1BEF1010F42D072
:10087000BEF1020F4DD0BEF1030F58D0BEF1040FF0
:1008800063D0146E91F800C004F0F844B4EB8C6FA0
:1008900003D1146E24F0004414660268546E91F87B
:1008A00000C004F0F844B4EB8C6F03D1546E24F014
:1008B000004454660268946E91F800C004F0F84455
:1008C000B4EB8C6F03D1946E24F0004494660268FC
:1008D000D46E91F800C004F0F844B4EB8C6F03D1EF
:1008E000D46E24F00044D4660268946804F00304D3
:1008F000012C3AD136E0D2F860E00EEA0C0E91F805
:1009000000C044EA8C644EEA040E4EF000441466C3
:10091000EAE7D2F864E00EEA0C0E91F800C044EA6F
:100920008C644EEA040E4EF000445466DCE7D2F8C4
:1009300068E00EEA0C0E91F800C044EA8C644EEABE
:10094000040E4EF000449466CEE7D2F86CE00EEA56
:100950000C0E91F800C044EA8C644EEA040E4EF08E
:100960000044C0E71468E4074CD1CC68012C06D0E1
:1009700052F8B03F0C78A740BB43136020E052F818
:10098000B04F91F800C007FA0CF73C4314600A68B6
:1009900004680A2A0AD3A769093A02EB4202934083
:1009A0009F438B6893401F43A76109E06769521C0E
:1009B00002EB420293409F438B6893401F43676161
:1009C0000968274A102904D0112905D0122906D018
:1009D00018E093681B0204E09368DB0101E0936870
:1009E0005B02002B0EDB009603689C6804F0030496
:1009F000012C0BD11C68E40708D0016C41F02001E8
:100A00000164012580F83C602846BDE64FF0A04413
:100A1000102908D011291AD01229F3D1916841F474
:100A200080019160EEE7A342ECD1916841F40001AE
:100A300091600C490C4A0968B1FBF2F101EB8101AC
:100A4000490000E0491E00910029FBD1DAE7A342EA
:100A5000D8D1916841F08071E3E7000000F0FF8396
:100A6000000300508400002040420F007047704790
:100A70007047000070B5044600680568466869075D
:100A800001D5710703D4290732D5310730D5216C40
:100A9000C90603D4216C41F400712164C168C268A5
:100AA00012F4406F1ED189041CD429071AD581681D
:100AB00049070FD4416821F00C014160206C20F4FB
:100AC00080702064206CC0040CD4206C40F00100C5
:100AD000206407E0206C40F010002064606C40F05F
:100AE000010060642046FFF7C1FF21680C20086008
:100AF000A80601D5B00603D4680639D5700637D5E7
:100B0000206C40F4005020642068C168C26C12F070
:100B1000C00F27D18A0105D5C26812F4406F21D1D8
:100B200089041FD469061DD5C16889021AD4816859
:100B300009070FD4416821F060014160206C20F466
:100B400080502064206CC0050CD4206C40F0010063
:100B5000206407E0206C40F010002064606C40F0DE
:100B6000010060642046FFF7E6FD21686020086010
:100B700028060BD5300609D5206C40F4803020645F
:100B8000204600F039F9216880200860E8050CD57E
:100B9000F0050AD5206C40F4003020642046FFF7B1
:100BA000CCFD21684FF480700860A8050CD5B00515
:100BB0000AD5206C40F4802020642046FFF7BEFD5B
:100BC00021684FF400700860E8061AD5F00618D5C1
:100BD000606B012807D017488168C90625D0806856
:100BE00000F4404050B1206C40F480602064606CA0
:100BF00040F0020060642046FFF73AFF21681020B1
:100C00000860680510D570050ED5206C40F4804052
:100C10002064606C40F00800606421684FF48060DC
:100C200008602046FFF788FD70BD2068C068C007D7
:100C3000D8E7000000030050F0B54FF0000695B073
:100C4000040037463546009605D0206CC00648D4CF
:100C5000206C18B133E0012015B0F0BD6564E56487
:100C6000A56484F83C50204600F0C8F820688068ED
:100C7000C00024D42046FFF729FC0646206CC0069D
:100C80001DD4E6B9206C20F4885040F002002064A6
:100C90002068816821F0405181602068816841F0BE
:100CA000805181604F4850490068B0FBF1F000EB83
:100CB0008000400000E0401E00900028FBD120682A
:100CC0008168C90002D5806880000AD5206C20F0B8
:100CD000020040F010002064606C40F0010060648D
:100CE0000126206CC00673D4002E71D1216888685B
:100CF00040076DD4206C20F4807040F00200206426
:100D000000953A488A6802F00302012A02D1096874
:100D1000C90705D18168626821F4403111438160BF
:100D2000D4E902100843616B012902D04FF48052CC
:100D300000E00022617E42EA4132104394F8202014
:100D40003843012A0AD1A9B1216C21F0020141F0F6
:100D500020012164616C41F001016164A16A0129F3
:100D600002D0E26A1143084321688A6812F00C0F2E
:100D700008D013E0A18C1E4A02EB4141014341F42B
:100D80008030EBE7CA6844F202039A43CA60217ECE
:100D900094F83020890341EA420108432168CA6877
:100DA000144B1A400243CA60206901282068016B75
:100DB00021F00F0102D1E269521E11430163656403
:100DC000206C20F0020040F00100206407E0FFE703
:100DD000206C20F0020040F0100020640126304614
:100DE0003AE700008400002040420F00000300505A
:100DF0000000FEFF07C0F0FF7047000070B586B02E
:100E0000064614216846FFF7C6FA3068B0F1A04FD5
:100E100047D12549486940F080504861486900F051
:100E200080500590486940F400304861486900F4FA
:100E300000300590486940F48020486148690324E7
:100E400000F480200590042000258DE831006946DB
:100E50004FF0904000F018FC02208DE83100694608
:100E6000124800F011FC134C1148C4E90005802021
:100E7000C4E9025040002061800060612020C4E984
:100E80000605204600F08EFB08B1FFF703FCB463B3
:100E9000002211461220666200F0A4FD122000F02C
:100EA00093FD06B070BD0000001002400004004831
:100EB00008000240080200202DE9F04104460068C5
:100EC00016460F468068400756D494F83C00012827
:100ED0000CD0012084F83C002046FFF72DFB0500D4
:100EE0004FF0000005D084F83C0046E00220BDE849
:100EF000F081216C40F60162914341F480712164DC
:100F0000216C21F4801121642168C968890105D50B
:100F1000216C21F4005141F480512164216CC904F9
:100F200004D5616C21F00601616400E0606484F81E
:100F30003C00A16B12488862A16B1248C862A16B89
:100F40001148086321681C2008602068416841F04E
:100F5000100141602068C16841F00101C160216851
:100F600033463A464031A06B00F043FB206881686D
:100F700041F00401816000E002252846B7E7000047
:100F80006D040008C7040008B1040008F0B590F82B
:100F900020500468A468012D05D0022D03D0416AB9
:100FA00041F480214DE014F0406F01D1E50045D5BA
:100FB000C4F301640125A5401D608D684FF4C07322
:100FC0009DB1CE6835434E6845EAC605066803EB19
:100FD0000417F5514FF4C275076805EB04150E6947
:100FE0007E51097D012905D009E00E88CD6845EACA
:100FF0004655EBE701684E5946F480764E5111791B
:10100000D2F805504FF4C67641EA0521056806EB93
:101010000416A9511178D2F801204FF4C47541EAA1
:101020000221026805EB04155151006803EB04111D
:10103000425842F0010242500020F0BD416A41F4A2
:10104000001141620120F0BD70472DE9F05F0546B7
:10105000006800244669D0F804908768D0F80CB086
:10106000D0F810A0D0F81880F10748D0F90714D0B4
:1010700001218160B80703D5284600F0F0F90CE0A3
:10108000780702D54FF4006407E0380702D54FF423
:10109000805402E0284600F0E1F9F80516D52968E9
:1010A0004FF480708860B80503D5284600F0D9F960
:1010B0000CE0780502D544F4005407E0380502D569
:1010C00044F4804402E0284600F0CAF9F80316D53B
:1010D00029684FF480308860B80303D5284600F0B3
:1010E000C2F90CE0780302D544F4004407E0380369
:1010F00002D544F4803402E0284600F0B3F930070A
:1011000007D55FEACB6004D52968102044F4007449
:10111000C86070074FF0080707D55FEA0B7004D569
:101120002868C760284600F067F9B00706D5286828
:10113000C068800702D0284600F05FF9700607D526
:101140005FEACA6004D52968102044F4806408610D
:10115000B00607D55FEA0A7004D5286807612846FB
:1011600000F04CF9F00606D528680069800702D027
:10117000284600F044F9B00308D55FEAC96005D5F8
:10118000296810204860284600F03AF9F00307D596
:101190005FEA097004D528684760284600F064F9C2
:1011A000300446D55FEA497040D5F00504D55FEAC2
:1011B000C87001D044F00104B00504D55FEA88701E
:1011C00001D544F00204700504D55FEA487001D5EA
:1011D00044F00404300529D518F0700F26D008F02B
:1011E0007000402815D006DC102809D020280AD02D
:1011F000302816D10AE050280ED0602811D10EE018
:1012000044F008040DE044F010040AE044F0200427
:1012100007E044F0400404E044F0800401E044F4BA
:1012200080742868816921F0700181612968042037
:101230004860002C05D0686A204368622846FFF7A2
:1012400003FFBDE8F09F70B5040003D094F82000C0
:1012500010B104E0012070BD204600F081F8206844
:10126000016841F00101016000F01EFB0546052602
:1012700004E000F019FB401B0A2811D820684068E0
:10128000C007F6D02068016821F00201016000F07B
:101290000BFB05460BE000F007FB401B0A2806D9B4
:1012A000606A40F40030606284F82060D2E7206811
:1012B00040688007EFD4207E0128206801683DD077
:1012C00021F080010160607E01282068016838D02B
:1012D00021F040010160A07E01282068016833D020
:1012E00021F020010160E07E0128206801682ED0F5
:1012F00041F010010160207F01282068016829D099
:1013000021F008010160607F01282068016824D075
:1013100021F004010160D4E902010843D4E9041278
:10132000114308436168491E08432168C8610020D1
:101330006062012084F82000002070BD41F080012F
:10134000C0E741F04001C5E741F02001CAE721F0C4
:101350001001CFE741F00801D4E741F00401D9E7DB
:1013600010B586B0044614216846FFF714F81F49EB
:101370002068884237D11E48C16941F00071C161BF
:10138000C16901F000710591416941F48021416119
:101390004069694600F4802005904FF44070009049
:1013A0000220019000200290032003900920049065
:1013B000104800F069F900221146132000F012FBDA
:1013C000132000F001FB00221146142000F00AFB5C
:1013D000142000F0F9FA00221146152000F002FB5B
:1013E000152000F0F1FA06B010BD000000640040C6
:1013F0000010024000040048704770477047704773
:101400007047000070B5044690F82000012804D011
:10141000606A40F40020606218E0022084F8200036
:101420002068016821F00101016000F03DFA0546E5
:101430000EE000BF00F038FA401B0A2808D9606AA5
:1014400040F400306062052084F82000012070BD67
:1014500020684068C007EDD1606270BD704770477A
:101460007047704770477047704710B540B190F8AB
:1014700021100022022905D00421816380F8202058
:10148000012010BD01680B6823F00E030B6001689A
:101490000B6823F001030B6090F84030C46B01210E
:1014A00001FA03F3636080F8211080F82020002007
:1014B00010BD10B590F821100024022903D004219A
:1014C0008163012418E001680A6822F00E020A60B4
:1014D00001680A6822F001020A6090F84020C36B9C
:1014E000012101FA02F25A6080F82110002180F8EF
:1014F0002010416B01B18847204610BDF0B4C16B8C
:101500000D6801680C68066C042202FA06F32B428F
:101510000FD063070DD50B689B0603D40B6823F02F
:1015200004030B6090F840108A40C16B4A60C16AA6
:101530001BE0022303FA06F72F424FF0000C4FF096
:10154000010216D0A70714D50C68A40605D40C68B0
:1015500024F00A040C6080F8212090F840108B40A1
:10156000C16B4B6080F820C0816A002918D0F0BCA4
:1015700008470823B3402B4212D0230710D50B682D
:1015800023F00E030B6090F84010C36B02FA01F1D8
:101590005960826380F8212080F820C0016BE4E765
:1015A000F0BC704770B5040021D0022084F82100FF
:1015B0002268116843F6F0708143D4E901031843AF
:1015C000D4E903352B43184363691843A3691843CF
:1015D000E3691843084310602046FFF735F8002000
:1015E000A063012184F8211084F8200070BD01203F
:1015F00070BD70B5044690F82000002501280CD07D
:10160000012084F8200094F821600020012E06D0EB
:1016100084F820000225284670BD022070BD0226F5
:1016200084F82160A0632068066826F00106066041
:101630002046FFF719F8E06A00282068016802D008
:1016400041F00E0106E041F00A01016020680168E6
:1016500021F0040101602068016841F0010101608E
:10166000D9E7000070B5044600F01EF90546601C7D
:1016700002D004480078044400F016F9401BA04250
:10168000FAD370BD780000202DE9F04FDFF800920A
:10169000002301260325A9F1040B85B00F2709F1CA
:1016A000040AABF1040EEAE006FA03F422407CD00F
:1016B00091F804C00CF0030CBCF1010F02D0BCF196
:1016C000020F26D1D0F808C0CDF800C04FEA430C75
:1016D00005FA0CF8CDF810C0DDF800C02CEA080CB3
:1016E000CDF800C0D1F80C80DDF810C008FA0CF875
:1016F000DDF800C048EA0C08C0F80880D0F804C043
:101700002CEA040C0C79C4F300149C4044EA0C0449
:1017100044600C79E443A4070DD0D0F80CC04FEA24
:10172000430805FA08F42CEA040C8C6804FA08F45F
:1017300044EA0C04C4600C7904F00304022C19D1AF
:10174000DC0800EB84040294246A4FEA437C4FEAED
:10175000DC6CCDF810C007FA0CFC24EA0C04D1F8BC
:101760001080DDF810C008FA0CF848EA0408029C62
:10177000C4F8208004684FEA430805FA08FC24EA0C
:101780000C0491F804C00CF0030C0CFA08FC4CEAB1
:10179000040CC0F800C04C6814F4403F6ED03D4CBF
:1017A000D4F818C04CF0010C00E067E0C4F818C091
:1017B000A46923F0030C04F001040094364C644443
:1017C0000294A4684FEA837C4FEA1C7807FA08FC6D
:1017D00024EA0C04B0F1904F06D0DFF8C0C0604599
:1017E00005D14FF0010C12E04FF0000C0FE0DFF8D4
:1017F000B0C0604502D14FF0020C08E0DFF8A4C091
:10180000604502D14FF0030C01E04FF0050C0CFADB
:1018100008FC4CEA040C029CC4F808C0D9F800404B
:10182000CC46D1F8048094435FEAC82800D514431D
:10183000CCF80040DAF80040D446D1F80480944354
:101840005FEA882800D51443CCF80040DBF800405C
:10185000DC46D1F8048094435FEA883800D514430D
:10186000CCF80040DEF80040F446D1F80480944300
:101870005FEAC83800D51443CCF800405B1C0A6806
:1018800032FA03F47FF410AF05B0BDE8F08F00002A
:10189000080401400010024000000140000400481C
:1018A00000080048000C00480148806870470000AC
:1018B0007800002070B5040011D021684CF6CC40AF
:1018C0000860216845F255500860D4E90001416084
:1018D0002168A0688860FFF7E7FF05460DE001205A
:1018E00070BD00BFFFF7E0FF401B272805D9206827
:1018F000C068400701D0032070BD2068C068400761
:10190000F0D120680269E1688A4201D0016102E0F9
:101910004AF6AA210160002070BD00684AF6AA219B
:10192000016000207047000002488168027811447D
:101930008160704778000020074810B5016841F0C9
:1019400010010160032000F06DF80F2000F006F890
:1019500000F024F8002010BD0020024070B50D4DAD
:1019600004464FF47A712878B1FBF0F00A4909680F
:10197000B1FBF0F001F0B6F948B9102C07D2002203
:101980002146501E00F02EF800206C6070BD012032
:1019900070BD00007800002084000020094808B5D0
:1019A000816941F001018161816901F001010091CA
:1019B000C16941F08051C161C06900F08050009060
:1019C00008BD000000100240002809DB00F01F02E3
:1019D000012191404009800000F1E020C0F8001191
:1019E00070470000F0B40E4B1B680C46C3F3022393
:1019F000C3F10705042D00D90425191D072901D2BB
:101A0000002300E0DB1E012606FA05F1491E2140F5
:101A100099409E40761E16403143F0BC04F0D4BA83
:101A20000CED00E0064900F0070208684FF6FF03DE
:101A3000184040EA0220034A104308607047000043
:101A40000CED00E00000FA0510B50C0607D501F01A
:101A5000070101EB810100EBC100103005E001EB53
:101A6000810100EBC10000F5A87099B232B10122EA
:101A700002730181190C4181002010BD0022027304
:101A8000C180F9E7704701EB810200EBC202D0F898
:101A9000D002526A03F02DBA01EB810200EBC202C0
:101AA000D0F8D002D2F8642103F086BA70B50446AB
:101AB0000B0601F0070000EB800104EBC1014FF0C1
:101AC00001024FF0000502D54A74103103E081F89D
:101AD000515101F5A871087094F89002012808D0BE
:101AE00084F89022206803F0C2FE84F8905200200F
:101AF00070BD022070BD70B5044601F00F00227960
:101B0000904201D9012070BD0B0601F0070000EBE7
:101B1000800104EBC1014FF001024FF0000502D536
:101B20004A74103103E081F8515101F5A8718D70AC
:101B3000087094F89002012808D084F89022206858
:101B400003F02EFF84F89052002070BD022070BD7B
:101B50002DE9F04704685FEA42480B788D69B4F8D4
:101B600050804FF0000C4BF68F7748F2800648F615
:101B70008F7948F2C00A444428D540F2024808EB65
:101B8000C30834F80840C4F30904A54203D32D1B4D
:101B90008D6102D00BE0C1F818C0D0F800C03CF84D
:101BA00023503D4085F4005535432CF82350520610
:101BB00009D50B78056835F8232002EA090242EAC4
:101BC0000A0225F8232074B30A8927E040F2064868
:101BD00008EBC30834F80840C4F30904A54203D352
:101BE0002D1B8D6102D00BE0C1F818C0D0F800C0E9
:101BF0003CF823503D4085F4005535432CF82350E4
:101C0000520609D40D78036833F8252002EA090248
:101C100042EA0A0223F825202CB14A894969006862
:101C2000234604F0A2F92046BDE8F0872DE9F047ED
:101C3000054600680C465FEA42681646D1F818C0AF
:101C40002278B0F8508048F68F774CF280094FF632
:101C5000FF734FF4004A4FF0000140447BD540F23F
:101C6000024808EBC20830F80800C0F309008445B8
:101C700014D9BCEB000CC4F818C010D0760408D5F9
:101C8000D5F800C03CF822603E4046EA09062CF830
:101C9000226094F82420012A50D05EE1A16160788E
:101CA00010B1012813D01AE02868B0F85030184459
:101CB00000EBC200B0F80224C2F30902A0F802242B
:101CC000B0F8022442F40042A0F8022407E0286899
:101CD000B0F85030184400EBC200A0F8021462784B
:101CE000286812B1012A11D018E0B0F85010084449
:101CF000217800EBC100B0F80614C1F30901A0F887
:101D00000614B0F8061441F4004105E0B0F8502084
:101D10001044227800EBC200A0F80614217828466F
:101D2000FFF7B1FE7004B8D521782A6832F8210097
:101D3000384040EA090022F821000EE162690244BD
:101D40006261E2690244E2612669226AB24203D317
:101D50003046111A04E040E084F824100AB110461D
:101D60002162617811B101292BD033E02968B1F8E3
:101D700050201144227801EBC201B1F80224C2F3D1
:101D80000902A1F8022401F2024158B13E280ED8FE
:101D90004208C60700D0521C0E8803EA822216436E
:101DA0000E8017E00A8842F400420A8012E04209DD
:101DB000C30600D1521E0B884AEA822213430B80CD
:101DC00008E02968B1F850201144227801EBC201E3
:101DD000A1F8020483B22289BBE040F2064808EB76
:101DE000C20830F80800C0F30900844514D3BCEBE6
:101DF000000CC4F818C010D0760408D4D5F800C080
:101E00003CF822603E4046EA09062CF8226094F82D
:101E10002420012A50D0A0E0A161607810B10128EF
:101E200013D01AE02868B0F85030184400EBC20014
:101E3000B0F80224C2F30902A0F80224B0F8022488
:101E400042F40042A0F8022407E02868B0F85030BD
:101E5000184400EBC200A0F802146278286812B19E
:101E6000012A11D018E0B0F850100844217800EB96
:101E7000C100B0F80614C1F30901A0F80614B0F8C7
:101E8000061441F4004105E0B0F8502010442278D7
:101E900000EBC200A0F8061421782846FFF7F3FDF6
:101EA00070045AD42278296831F82200384040EA78
:101EB000090021F8220050E0626902446261E2698F
:101EC0000244E2612669226AB24203D33046111A03
:101ED000216204E00AB11046216284F8241062787D
:101EE000296812B1012A2AD031E0B1F850201144FA
:101EF000227801EBC201B1F80624C2F30902A1F86D
:101F0000062401F2064158B13E280ED84208C60701
:101F100000D0521C0E8803EA822216430E8016E07F
:101F20000A8842F400420A8011E04209C30600D147
:101F3000521E0B884AEA822213430B8007E0B1F855
:101F400050201144227801EBC201A1F806046289F5
:101F500083B26169286804F023F82278296831F88F
:101F6000220048F6BF73184080F0300048F280032A
:101F7000184321F822000020BDE8F08701F0070196
:101F800001EB810100EBC100D0F86C0170472DE935
:101F9000F04104460F0601F0070000EB800104EB5E
:101FA000C1014FF001064FF0000502D54E7410310B
:101FB00003E081F8515101F5A871022B08700A6104
:101FC000CB7000D10D7194F89002012809D084F8EB
:101FD0009062206803F000FB284684F89052BDE828
:101FE000F0810220FBE710B501F0070404EB840147
:101FF00000EBC101C1E959230022C1F86C2181F82D
:10200000512181F85041006801F5A87103F01DFDD0
:10201000002010BD70B5044601F0070022799042FF
:1020200001D9012070BD0B064FF000054FF00102F1
:1020300006D500EB800104EBC1014A74103107E0C2
:1020400001EB810104EBC10181F8515101F5A87147
:102050008A70087094F89002012808D084F89022C1
:10206000206803F0D9FC84F89052002070BD022053
:1020700070BD10B501F0070404EB840100EBC10151
:10208000C1E90923012281F834200B630023CB62CC
:102090004A7401F8104F006803F0D7FC002010BD0F
:1020A00010B50446006803F05DFF010404D5204626
:1020B000BDE8104001F0E4BD41050ED5206830F8C0
:1020C000441F21F480610180204600F0CFF82046B3
:1020D000BDE81040002100F0E4B8410405D52068B7
:1020E00030F8441F21F4804149E0810405D520687F
:1020F00030F8441F21F4005141E0C10414D5206898
:1021000030F8401F21F004010180206830F8401FA2
:1021100021F008010180204600F0BBF8206830F86B
:10212000441F21F480512AE0010515D5206830F8BC
:10213000401F41F008010180206830F8441F21F45D
:1021400000610180206830F8401F41F004010180E7
:10215000204600F0D9F810BD810509D5206830F877
:10216000441F21F400710180204600F096F810BD54
:10217000C005FCD5206830F8441F21F4807101802F
:1021800010BD000070B5040004D094F89102002541
:1021900010B106E0012070BD84F89052204600F096
:1021A00039F8032084F89102206803F0F2FB002044
:1021B00001260BE000EB800104EBC1014E740874B2
:1021C000CD740D624D62401CC0B28D622179814296
:1021D000F0D8002012E000BF00EB800104EBC10149
:1021E00081F8515181F8500181F85351C1F8605183
:1021F000C1F86451401CC0B2C1F8685121798142D4
:10220000EAD894E8070003F0BBFB257384F89162D9
:10221000002070BD08B50068114988421FD11148DF
:10222000C16941F40001C161C06900F4000000907F
:102230000D48016841F020010160002211464A204A
:10224000FFF7D0FB4A20FFF7BFFB002211464B20CF
:10225000FFF7C8FBBDE808404B20FFF7B5BB08BD42
:10226000005C0040001002400000014070B50446D0
:1022700040790125022801D0FEF70CFA2946D4F84E
:10228000D00202F081FFD4F8D002BDE8704002F025
:102290003DBFD0F8D00202F061BFD0F8D00202F00A
:1022A00067BF10B5044690F8900201280AD00120BB
:1022B00084F890022173206803F06BFE002084F8FC
:1022C000900210BD022010BDD0F8D02200F526717A
:1022D000104602F065BF10B5044690F89002012840
:1022E00010D0012084F89002206803F019FE01212B
:1022F0002046FFF7C7FB206803F040FB002084F86E
:10230000900210BD022010BD10B50446D0F8D002D6
:1023100002F085FF607A002804D00348016841F08C
:102320000601016010BD000010ED00E02DE9F84F3E
:10233000054600680026774CC0036ED5E069C000F2
:1023400008D4E06940F08050E061E069012600F0C7
:102350008050009070480168C90512D40168804619
:1023600041F480710160FFF79FFA074605E000BF66
:10237000FFF79AFAC01B642835D8D8F80000C005CA
:10238000F6D5206A10F4407053D0A98801F440714A
:1023900081424ED0206A4FF4803191FAA1F2B2FA14
:1023A00082F297005D4A4FF00108174420F4407014
:1023B000C7F8008491FAA1F1B1FA81F102EB810131
:1023C0000023C1F800342062C00732D0FFF76CFA56
:1023D000074641F2883A4FF0020907E0FFF764FA36
:1023E000C11B514502D90320BDE8F88F99FAA9F124
:1023F000B1FA81F141F040014846B8EB511F01D1DB
:1024000021680CE090FAA0F1B1FA81F141F04001AD
:10241000B0EB511F02D1216A01E015E0616A99FA1F
:10242000A9F0B0FA80F000F01F0008FA00F21142A3
:10243000D4D0206A696820F44070084320621EB13D
:10244000E06920F08050E0612878C00705D0206B5B
:10245000A96820F00300084320632878800605D58A
:10246000206BE96820F0100008432063286880038F
:1024700005D56068296B20F48000084360602878E7
:10248000400605D5206B296920F020000843206311
:102490002888000405D5206B696920F040000843B6
:1024A00020632888800505D56068E96920F400006C
:1024B000084360602878000605D5E06AA96920F421
:1024C000F8700843E0622888C00405D5206B296AAB
:1024D00020F48070084320632868400305D5206BF2
:1024E000696A20F48060084320632868000305D5EA
:1024F000206BA96A20F40060084320632868C002AA
:1025000005D5206BE96A20F40050084320630020C1
:102510006AE70000001002400070004000004242E4
:102520002DE9F0470F46050069D04A4E306800F0AB
:102530000700B84209D2306820F007003843306005
:10254000306800F00700B84259D12878424C800723
:1025500005D56068A96820F0F0000843606028781D
:10256000C0073DD06968012001290DD0022923D080
:102570005FF0020393FAA3F2B2FA82F242F0200271
:10258000520904D0226803E04FF40033F2E7626A94
:1025900093FAA3F3B3FA83F303F01F0398400242C4
:1025A0002DD0606820F0030008436060FFF77CF9DD
:1025B000804641F288390CE04FF00073DAE700BF43
:1025C000FFF772F9A0EB0801494502D90320BDE8E5
:1025D000F0876068696800F00C00B0EB810FEFD104
:1025E000306800F00700B8420BD9306820F00700CF
:1025F00038433060306800F00700B84201D0012055
:10260000E5E72878400705D56068E96820F4E060D0
:10261000084360602878000706D56068296920F4BF
:10262000605040EAC100606000F04EF86168F0223E
:1026300092FAA2F201F0F001B2FA82F2D140074A16
:10264000515CC8400649086006480068FFF786F9F3
:102650000020BCE70020024000100240AE600008ED
:10266000840000207C00002008480949006849686F
:102670004FF4E06292FAA2F201F4E061B2FA82F25F
:10268000D140044A515CC8407047000084000020DB
:1026900000100240BE600008084809490068496807
:1026A0004FF4605292FAA2F201F46051B2FA82F24F
:1026B000D140044A515CC8407047000084000020AB
:1026C00000100240BE600008104A10B55168104862
:1026D00001F00C03042B02D0082B01D0401010BDD8
:1026E0000C4BC1F38344D26A1C5D02F00F0210331D
:1026F000C9039A5C06D500231946FDF7D5FDA0FB5A
:10270000040110BD0448A4FB000110BD00100240EC
:102710000024F4008E60000800093D002DE9F84F08
:10272000050071D02878FC4EC0074FF0010425D079
:1027300070686704C0F38100012807D07068C0F397
:10274000810002281BD17068C00318D597FAA7F042
:10275000B0FA80F040F02000400901D0306800E07D
:10276000706A97FAA7F1B1FA81F101F01F0104FA3A
:1027700001F1084265D068680028D2D061E068683D
:10278000B0F5803F0BD010B1B0F5A02F17D0306856
:1027900020F480303060306820F4802002E030681F
:1027A00040F480303060F06AA96820F00F000843E0
:1027B000F062686820B3FFF777F880460AE0306877
:1027C00040F480203060EAE7FFF76EF8A0EB0800E5
:1027D000642871D897FAA7F0B0FA80F040F0200092
:1027E000400901D0306800E0706A97FAA7F1B1FAA9
:1027F00081F101F01F0104FA01F10842E4D020E068
:10280000FFF752F8804607E0C2E000BFFFF74CF840
:10281000A0EB08006428DCD897FAA7F0B0FA80F0A3
:1028200040F02000400901D0306800E0706A97FA5B
:10283000A7F1B1FA81F101F01F0104FA01F1084298
:10284000E4D12878DFF8D48280074FF0000A4FF0F7
:10285000020730D570684FF0F80B10F00C0F07D05E
:102860007068C0F38100022827D17068C00324D4A7
:1028700097FAA7F0B0FA80F040F02000400901D0AC
:10288000306800E0706A97FAA7F1B1FA81F101F0BF
:102890001F0104FA01F1084202D02869012877D10A
:1028A00030689BFAABF220F0F8016869B2FA82F264
:1028B0009040014331605AE064E1286988B394FA9A
:1028C000A4F0B0FA80F048F82040FEF7EDFF814612
:1028D00006E000BFFEF7E8FFA0EB090002289AD847
:1028E00097FAA7F0B0FA80F040F02000400901D03C
:1028F000306800E0706A97FAA7F1B1FA81F101F04F
:102900001F0104FA01F10842E4D030689BFAABF2EF
:102910006969B2FA82F220F0F80091400843306011
:1029200025E0FFE794FAA4F0B0FA80F048F820A080
:10293000FEF7BAFF814605E0FEF7B6FFA0EB0900FF
:102940000228CCD897FAA7F0B0FA80F040F0200027
:10295000400901D0306800E0706A97FAA7F1B1FA37
:1029600081F101F01F0104FA01F10842E4D1287855
:1029700000076CD5A869A8B394FAA4F0B0FA80F067
:1029800008EB8000C0F88044FEF78EFF814607E028
:10299000A4E100BFFEF788FFA0EB090002289ED843
:1029A00097FAA7F0B0FA80F040F06000B4EB501F47
:1029B00001D130680BE097FAA7F0B0FA80F040F050
:1029C0006000B7EB501F01D1306A00E0706A97FADF
:1029D000A7F1B1FA81F101F01F0104FA01F21042EE
:1029E000D8D034E0FFE794FAA4F1B1FA81F108EB12
:1029F0008101C1F880A4FEF757FF814606E000BFC1
:102A0000FEF752FFA0EB090002289AD897FAA7F028
:102A1000B0FA80F040F06000B4EB501F01D1306894
:102A20000BE097FAA7F0B0FA80F040F06000B7EB47
:102A3000501F01D1306A00E0706A97FAA7F1B1FA2D
:102A400081F101F01F0104FA01F21042D8D1287877
:102A5000400768D5F0694FF00009C00009D4F0695B
:102A600040F08050F061F0694FF0010900F08050B3
:102A700000902B480168C90512D4016841F48071A7
:102A80000160FEF711FF834606E000BFFEF70CFF72
:102A9000A0EB0B00642875D821480068C005F5D567
:102AA000E86801280AD008B1052811D0306A20F062
:102AB00001003062306A20F0040002E0306A40F029
:102AC00001003062E86868B3FEF7EEFE83460DE071
:102AD000306A40F004003062F0E700BFFEF7E4FE29
:102AE000A0EB0B0141F2883081424BD897FAA7F056
:102AF000B0FA80F040F04000B4EB501F01D13068D4
:102B000013E097FAA7F0B0FA80F040F04000B7EB7E
:102B1000501F09D1306A08E0001002400000424214
:102B2000007000400CE040E0706A97FAA7F1B1FA3B
:102B300081F101F01F0104FA01F21042CED02DE024
:102B4000FEF7B2FE834607E0FEF7AEFEA0EB0B01F8
:102B500041F28830814215D897FAA7F0B0FA80F098
:102B600040F04000B4EB501F01D130680CE097FA00
:102B7000A7F0B0FA80F040F04000B7EB501F02D150
:102B8000306A01E083E0706A97FAA7F1B1FA81F147
:102B900001F01F0104FA01F21042D5D1B9F1000F82
:102BA00003D0F06920F08050F061E86980B371686B
:102BB000C1F38101022977D04FF080714F000228C4
:102BC000504609D091FAA1F1B1FA81F148F82100FB
:102BD000FEF76AFE05465DE0894691FAA1F1B1FA79
:102BE00081F1C24648F82100FEF75EFE804605E00E
:102BF000FEF75AFEA0EB0800022848D897FAA7F083
:102C0000B0FA80F040F02000400902D0306801E0C6
:102C100066E0706A97FAA7F1B1FA81F101F01F013D
:102C200004FA01F10842E3D1D5E9081008437168BC
:102C300021F474110843706099FAA9F0B0FA80F099
:102C40004AF82040FEF730FE054604E0FEF72CFE71
:102C5000401B02281BD897FAA7F0B0FA80F040F08A
:102C60002000400901D0306800E0706A97FAA7F1AF
:102C7000B1FA81F101F01F0104FA01F10842E5D037
:102C80002EE000BFFEF710FE401B022802D90320F1
:102C9000BDE8F88F97FAA7F0B0FA80F040F0200076
:102CA000400902D0306801E00BE0706A97FAA7F1A2
:102CB000B1FA81F101F01F0104FA01F10842E1D1FA
:102CC0000EE00128E4D070682A6A00F48031914255
:102CD00004D1696A00F47010884201D00120D7E75E
:102CE0000020D5E710B5401EB0F1807F01D3012050
:102CF00010BD4FF0E02460610F21601703F064F90C
:102D00000020A06107202061002010BD704770479F
:102D100070470000F0B590F83C20012A29D001242A
:102D200080F83C40022280F83D2003685A689D6884
:102D3000114EB34203D122F470074A683A4322F09D
:102D400070070A683A435A600268B24205D0B2F18D
:102D5000804F02D0094B9A4204D1896825F0800344
:102D60001943916080F83D40002180F83C100846EE
:102D7000F0BD0220F0BD0000002C014000400140E9
:102D800010B5040003D094F83D0010B107E0012015
:102D900010BD002084F83C00204600F023F80220FB
:102DA00084F83D00211D206801F084F9012084F899
:102DB000480084F83E0084F83F0084F8400084F81E
:102DC000410084F8420084F8430084F8440084F809
:102DD000450084F8460084F8470084F83D00002050
:102DE00010BD000008B500680B49884212D10B489D
:102DF000816941F4006181618069002200F4006012
:102E0000009011461920FEF7EDFDBDE8084019209D
:102E1000FEF7DABD08BD0000002C014000100240A2
:102E200090F83D10012901D001207047022180F85F
:102E30003D100168CA6842F00102CA6000680B498F
:102E4000884205D0B0F1804F02D00949884207D1AD
:102E50008168084A1140062906D0B1F5803F03D0A9
:102E6000016841F00101016000207047002C014021
:102E7000004001400700010070B5044690F83C0096
:102E80000025012817D0012684F83C60022084F830
:102E90003D00226890682F4B184020F47F409060DE
:102EA0000868502838D00DDC20284FD005DC90B3BE
:102EB000102811D14AE0022070BD302846D04028A9
:102EC0000AD13BE060282FD070280DD0B0F5805F8C
:102ED00003D0B0F5005F12D0012584F83D600020DA
:102EE00084F83C00284670BDCB68D1E901212068F8
:102EF00001F031F92068816841F0770109E0CB6881
:102F0000D1E90121206801F026F92068816841F4A7
:102F100080418160E1E719E0CA684968206801F0F2
:102F20008DFA5021206806E0CA684968206801F0DF
:102F300096FA6021206801F018F9CEE7CA6849685E
:102F4000206801F07BFA40212068F4E722680146FE
:102F50001046F0E788FFFEFF70472DE9F041044678
:102F60000068C66805694FF00007A90713D5B107C7
:102F700011D5F91E01610120207720688069800742
:102F8000204602D0FFF7E8FF04E000F0B1F8204649
:102F900000F084F92777680716D5700714D52168E3
:102FA0006FF004000861022020772068806910F427
:102FB000407F204602D0FFF7CFFF04E000F098F8F2
:102FC000204600F06BF92777280715D5300713D571
:102FD00021686FF008000861042020772068C0692C
:102FE0008007204602D0FFF7B7FF04E000F080F82A
:102FF000204600F053F92777E80616D5F00614D5D9
:1030000021686FF010000861082020772068C069EF
:1030100010F4407F204602D0FFF79EFF04E000F04E
:1030200067F8204600F03AF92777E80708D0F0075C
:1030300006D021686FF001000861204600F09CF97D
:10304000280608D5300606D521686FF08000086193
:103050002046FFF75CFEE80508D5300606D5216856
:103060006FF4807008612046FFF750FE680608D5AF
:10307000700606D521686FF040000861204600F018
:103080001DFAA8060AD5B00608D521686FF0200001
:1030900008612046BDE8F041FFF73ABEBDE8F08187
:1030A00010B586B0044614216846FDF774F920680F
:1030B000B0F1804F16D10C48416941F48021416143
:1030C0004069694600F4802005904FF4006000904C
:1030D00002200190002002900390012004900348F8
:1030E000FEF7D2FA06B010BD0010024000040048FE
:1030F000704770B5044690F83C0000260D46012844
:103100000BD0012084F83C000C2A4AD007DC82B1A5
:10311000042A20D0082A06D131E0022070BD102AEE
:1031200053D0142A63D00126002084F83C00304696
:1031300070BD206801F022F82068816941F0080123
:1031400081612068816921F00401816120688169C1
:103150002A69114311E0206801F054F82068816960
:1031600041F4006181612068816921F4806181619D
:10317000206881692A6941EA02218161D4E72068D7
:1031800001F080F82068C16941F00801C161206840
:10319000C16921F00401C1612068C1692A69114334
:1031A00011E0206801F0AEF82068C16941F40061C7
:1031B000C1612068C16921F48061C1612068C16971
:1031C0002A6941EA0221C161AEE7206801F0D0F826
:1031D0002068416D41F0080141652068416D21F092
:1031E000040141652068416D2A69114311E020689E
:1031F00001F0F0F82068416D41F4006141652068FC
:10320000416D21F4806141652068416D2A6941EA80
:103210000221416588E710B5040003D094F83D0011
:1032200010B107E0012010BD002084F83C002046CA
:1032300000F022F8022084F83D00211D206800F0F3
:1032400039FF012084F8480084F83E0084F83F00EC
:1032500084F8400084F8410084F8420084F8430078
:1032600084F8440084F8450084F8460084F8470058
:1032700084F83D00002010BD08B50068B0F1804F13
:1032800008D10548C16941F00101C161C06900F080
:103290000100009008BD00000010024070470000CF
:1032A00010B50446022269B1042912D0082917D0AA
:1032B0000C291CD0102921D094F84300012824D0D7
:1032C000012010BD94F83E000128F9D184F83E2079
:1032D0001DE094F83F000128F2D184F83F2016E069
:1032E00094F840000128EBD184F840200FE094F8D6
:1032F00041000128E4D184F8412008E094F842001C
:103300000128DDD184F8422001E084F84320012225
:10331000206800F013FF13492068134A884207D041
:10332000904205D0114B984202D0114B984203D1E4
:10333000436C43F4004343642068884204D0B0F1F6
:10334000804F01D0904207D181680A4A1140062976
:1033500006D0B1F5803F03D0016841F00101016062
:10336000002010BD002C01400040014000440140FD
:103370000048014007000100F0B5444987B0884289
:103380007ED14348018800EE101AB8EE400A9FED46
:10339000411A20EE010ADFED400A20EE200ADFED9F
:1033A0003F1AF2EE042AA0F10C0480EE212A9FEDD0
:1033B0003C0A3E4DAB27002622EE002A82EE220A6E
:1033C000DFED382A84ED010A408802EE100AB8EEDB
:1033D000422A32EE622A22EE011A61EE200A80EEC3
:1033E000A11ADFED311AC1EE210AC4ED000A20EE68
:1033F000200A10EE900A84ED020A2F70C5F8010031
:103400006068C5F80500A068C5F809006E73012062
:10341000697B2A5C401C114469730D28F8DB0E227D
:103420002249234800F044FA206820616068606106
:103430004FF48A70CDE9000608200296CDE90360BA
:10344000134A06AB121D69461A48FDF79FFD17483F
:103450000E300770216845F80F1F61686960A16828
:10346000A96046730121427B435C491C1A444273A4
:103470000D29F8DB0D480E210E30FDF7BDF800E0F8
:1034800002E00D48FEF749FA07B0F0BD84020020C3
:103490000C000020000080393333534000004842C4
:1034A00000681C46000000450AD7A33B9C01002091
:1034B0001C0300204C02002074020020704770475B
:1034C000704770472DE9F04102680446D0691168E1
:1034D000936840F60F0528424FF000054FF00206B2
:1034E00005D187067ED58F067CD5A16E2AE1DFF84F
:1034F00084C203F0010701EA0C0C57EA0C0C71D0EE
:103500005FEAC07C0CD05FEAC15C09D54FF0010CCA
:10351000C2F820C0D4F8842042F00102C4F884200C
:10352000820709D5DA0707D022681662D4F884200A
:1035300042F00402C4F8842042070AD5DA0708D012
:10354000236804221A62D4F8842042F00202C4F8EC
:10355000842002070CD501F020023A4308D02368EA
:1035600008221A62D4F8842042F00802C4F88420A9
:1035700002050BD54A0109D523684FF400621A628F
:10358000D4F8842042F02002C4F88420D4F88420A7
:10359000002A36D0800605D5880603D5A16E09B16C
:1035A00020468847D4F8840021688968490602D4F7
:1035B00010F0280F27D0204601F071F820688068AD
:1035C00040061BD52068083050E8001F21F040015C
:1035D00040E80012002AF5D1606F78B16649416376
:1035E000606F00E015E0FDF764FF002809D0606F10
:1035F000416B00E02046BDE8F04108472046FFF758
:1036000060FFBDE8F0812046FFF75BFFC4F88450FF
:10361000F7E7D4F860C02027BCF1010F7DD15FEA45
:10362000C06C7ED55FEAC16C7BD51020106220682B
:103630008068400642D5616F086840680004000C4D
:10364000DFD0B4F858208242DBD9A4F85A00886948
:1036500020282BD0216851E8000F20F4807041E829
:103660000002002AF6D12068083050E8001F21F03F
:10367000010140E80012002AF5D12068083050E826
:10368000001F21F0400140E80012002AF5D1C4F8E3
:1036900080702566206850E8001F21F0100140E886
:1036A0000012002AF6D1606FFDF7DFFE6666B4F8FF
:1036B0005800B4F85A10401A81B22CE0B4F85800FF
:1036C000B4F85A10401A81B2B4F85A00002898D0C1
:1036D000002996D0226852E8000F20F4907042E84A
:1036E0000003002BF6D12068083050E8002F22F0AC
:1036F000010240E80023002BF5D1C4F88070256654
:10370000A566206850E8002F22F0100240E8002350
:10371000002BF6D16666204600E002E0FFF7CFFE00
:103720006FE7C60209D55B0207D54FF4801010621F
:103730002046BDE8F041FFF7C3BE020606D50A06E3
:1037400004D5E16E00297FF455AF5AE74006E7D56E
:103750004806E5D52046026852E8001F21F04001E6
:1037600042E80013002BF6D1C767C56600F0E6F803
:1037700047E7000020010004F345000810B50400ED
:1037800002D0E06F10B107E0012010BD002084F8E6
:103790007800204600F026F82420E06720680168C1
:1037A00021F001010160606A10B1204600F069FE5D
:1037B000204600F0A7FF0128E7D02068416821F4E7
:1037C000904141602068816821F02A018160206871
:1037D000016841F0010101602046BDE8104000F0A1
:1037E000B4BE0000F0B587B0064614216846FCF769
:1037F000D2FD2B49306888424FD12A48816941F473
:1038000080418161816901F480410591416941F400
:10381000003141614069002400F4003005904FF40C
:10382000C06000900220CDE901040320039007202E
:10383000049069464FF09040FDF726FF1B4D1A4853
:10384000802701C5102091C5184845F810496C61C2
:10385000AC61EC61FDF7A6FE08B1FCF71BFF356714
:103860006E62124D104844351430C5E90004C5E9B4
:1038700002472C616C61AC612846EC61FDF792FE59
:1038800008B1FCF707FF75670022114625206E621C
:10389000FEF7A8F82520FEF797F807B0F0BD000066
:1038A000003801400010024044000240A403002000
:1038B00070B50446C06F202801D0022070BD29B326
:1038C00022B3E164A4F85020A4F852200021C4F8E7
:1038D00084102120E067206FD0B1154B8362236FE5
:1038E0001448D862236F14481863206F134641634D
:1038F0002068256F00F128022846E16CFDF779FE6B
:1039000030B11020C4F884002020E067012070BD91
:103910002168402008622068083050E8001F41F00C
:10392000800140E80012002AF5D1002070BD00009F
:10393000554600089546000807460008704770473E
:10394000FEE70000F0B500230A24302537261F4685
:1039500011E000BFB4EB107F02D905EB107C01E051
:1039600006EB107C01F813C001EB430C00015B1C5B
:103970008CF80170DBB29342ECD3F0BD70B586B029
:1039800018216846FCF707FD1D484FF0A0410024B0
:10399000C0E90014012505618460447680F8204068
:1039A000A902C1620226C6614FF41071C46081622F
:1039B00080F830500821416104764463FDF73CF9FA
:1039C00008B1FCF767FE0320CDE900050520CDE92D
:1039D0000204049469460A480594FCF7B1FE08B154
:1039E000FCF758FE0C20CDE9000669460448FCF7B8
:1039F000A7FE002801D0FCF74DFE06B070BD000008
:103A0000B80100200F4810B50D490160092141603F
:103A100000214FF480328160C0E9031241610176D8
:103A2000012242768176C27601774177FDF70BFC61
:103A3000002803D0BDE81040FCF72CBE10BD0000EC
:103A4000006400404C020020114808B5416941F073
:103A5000010141614069002200F00100009011461F
:103A60000B20FDF7BFFF0B20FDF7AEFF0022114634
:103A70000E20FDF7B7FF0E20FDF7A6FF002211462E
:103A80000F20FDF7AFFFBDE808400F20FDF79CBFFA
:103A9000001002400D4808B5416941F480014161C0
:103AA000416901F480010091416941F400314161B3
:103AB000416901F400310091416941F48021416183
:103AC000406900F48020009008BD00000010024012
:103AD0000A4810B508490160002141604FF47A712D
:103AE000C1608160FDF7E6FE002803D0BDE810400C
:103AF000FCF7D0BD10BD0000003000407402002073
:103B000010B588B0002419480594069403940494D1
:103B1000009401941449029401604721C0E9011402
:103B200040F2E731C0E9031444618461FFF728F9EA
:103B300008B1FCF7AFFD4FF48050039003A90B4888
:103B4000FFF79AF908B1FCF7A5FD2020CDE90004A4
:103B5000694606480294FFF7DDF8002801D0FCF71B
:103B600099FD08B010BD0000002C01408402002027
:103B700010B58AB00024079408941C216846099463
:103B8000FCF709FC15484FF08041C0E9001442F2EF
:103B90000F71C0E90241802104618161FFF73BFBA5
:103BA00008B1FCF777FD079407A90C480994FFF7C3
:103BB000B1F808B1FCF76EFD6020CDE90004029475
:103BC0000C22694605480494FFF793FA08B1FCF704
:103BD00061FD0248FFF764FA0AB010BDD002002070
:103BE0000F4810B50D4901600E4941604FF48051F6
:103BF000816000214FF48062C0E903120C22C0E909
:103C00000521C16101624162FFF7B8FD002803D0C0
:103C1000BDE81040FCF73EBD10BD0000003801407B
:103C20001C03002040420F0010B500220F4910482D
:103C300001F038F908B1FCF72DFD0E490C4801F0F0
:103C400014FB08B1FCF726FD0B49094800F02EFFD4
:103C500008B1FCF71FFD064801F05CFB002803D00B
:103C6000BDE81040FCF716BD10BD00001800002094
:103C70002C0400206401002068000020FEE7FEE71D
:103C80002DE9F84F044640F68F7A40F2064B48F68D
:103C90000F784FF00009ACE1B0F8441011F00F05B7
:103CA00039D030F8256031047ED530F8251001EA8E
:103CB0000A0141F0800120F8251005EB850004EB96
:103CC000C00797F85C0107F5A87700286DD0F87851
:103CD00002286BD03978206830F8212048F68F739D
:103CE0001A4048F2C0031A4320F82120397820688E
:103CF00030F821205204B0F8502002EB00037CD5AC
:103D000040F2024202EBC101595A8905890D009126
:103D100074D03A89CEE0C9062AD4018801EA0801A4
:103D200041F400410180206804F11005B0F8501002
:103D3000227C084440F2024101EBC201405AC0F328
:103D40000900E062616A0844606200212046FDF7D4
:103D50009AFE207B00289ED0A86900289BD1207B5A
:103D600040F080012068A0F84C1084F80C9040E1ED
:103D7000018804F5A8750A051ED5B0F850102A78F8
:103D800001440BEBC200085A04F52671C0F3090385
:103D9000EB61EA88206802F0E8F82168088800EA08
:103DA0000A0040F0800002E09FE066E073E00880D7
:103DB0002046FEF789FA1CE10904D8D5018801EAFA
:103DC0000A0141F0800101802068B0F850100A1803
:103DD00029780BEBC100105A83059B0DEB6110D0C5
:103DE000696971B1EA88206802F0BFF8E969686919
:103DF000084468610021204601E053E051E0FDF7EE
:103E00004BFE206801880A05B1D4C1F301310329B2
:103E1000ADD0B0F850100844B0F80614C1F3090151
:103E2000A0F80614296900F2064059B13E290DD8C0
:103E30004A08C90700D0521C01884FF6FF7303EAF5
:103E400082220CE0018841F4004109E04A09C906D8
:103E500000D1521E01884FF4004343EA82221143ED
:103E60000180216808884BF68F72104080F4405022
:103E700048F2800210430880BBE02068B0F8501080
:103E80003B780A180BEBC301515A8905890D009143
:103E900014D0FA880EE0324639462046FDF758FE27
:103EA00000900BE00BEBC101595A8905890D009177
:103EB00004D07A897969009B02F057F8F969009873
:103EC0000844F8617869009908447861B86918B1C4
:103ED00039690098814204D939782046FDF7DCFD24
:103EE00003E03946206801F0B0FD30062DD5226888
:103EF00005EB850004EBC00132F8250000EA08005C
:103F000040F4004022F82500C87C103101281DD063
:103F1000F0056AD42068B0F8502013180A7840F2EF
:103F2000024000EBC200185A8A69C0F309008242BD
:103F300054D9121A8A6153D04A6902444A61CA6943
:103F40001044C861206801F080FD52E0C1F818906B
:103F5000087B4A4608B3700620D5487810B101287E
:103F600012D03DE02068B0F8502010440A7800EBF1
:103F7000C200B0F80224C2F30902A0F80224B0F88B
:103F8000022442F4004206E02068B0F850301844A1
:103F90000B7800EBC300A0F8022421E04B782068E6
:103FA00013B1012B11D01BE0B0F8502010440A7857
:103FB00000EBC200B0F80624C2F30902A0F8062400
:103FC000B0F8062442F4004205E0B0F8503018443E
:103FD0000B7800EBC300A0F8062401E0C1F81890AC
:103FE00009782046FDF74FFD03E032462046FDF7F5
:103FF0001DFE2068B0F8441009043FF54DAE0020C6
:10400000BDE8F88F70477047FDF78EBC10B59CB0C7
:1040100028216846FCF7BFF9142117A8FCF7BBF963
:1040200034210AA8FCF7B7F909204FF48031CDE913
:104030000001012002900224CDE9060404904FF40F
:10404000E010CDE908106846FEF768FB08B172B6CB
:10405000FEE70F20CDE9170400244FF48060CDE97E
:104060001940022117A81B94FEF75AFA08B172B63C
:10407000FEE708480A904FF480700C941090169454
:1040800012940AA8FEF752F9002801D072B6FEE792
:104090001CB010BD811002000248016841F470019B
:1040A0000160704788ED00E00148FEF756BF000050
:1040B00084020020F0B502681C4B4FF08047984204
:1040C00001D0B84203D122F070044A682243184C50
:1040D000184D194E984207D0B84205D0A04203D0DF
:1040E000A84201D0B04203D122F44077CA683A43D3
:1040F0004F6922F080023A4302608A68C2620A680D
:104100008262984205D0A04203D0A84201D0B042BA
:1041100001D109690163012141610169C90703D026
:10412000016921F001010161F0BD0000002C014096
:1041300000400140004401400048014010B501F03A
:104140001F030121046A99408C430462016A9A406A
:104150001143016210BD10B5846842EA032224F4C1
:104160007F440A432243826010BD826822F07002BD
:104170000A4342F00701816070470000F0B5056A0C
:10418000026A22F00102026243688269184C25F03B
:10419000020522400C6822F0030214438A68164E7E
:1041A0002A43144D154FDFF858C0A84205D0B0423D
:1041B00003D0B84201D0604506D122F0080ECA688B
:1041C00042EA0E0222F00402A84205D0B04203D017
:1041D000B84201D0604505D14D6923F440731D43B9
:1041E0008B692B4343608461496841630262F0BD7F
:1041F0008FFFFEFF002C01400040014000440140C1
:104200000048014030B5046A026A22F010020262DE
:1042100042688369164D2B400D6823F4407343EACE
:10422000052524F020038C6843EA0413114CA042B6
:1042300007D1CC6823F0800343EA041323F0400342
:1042400008E00D4CA04205D00C4CA04202D00C4C12
:10425000A04207D14C6922F4406242EA84028C6990
:1042600042EA84024260856149688163036230BD2D
:10427000FF8FFFFE002C0140004001400044014040
:104280000048014030B5046A026A22F4807202627A
:104290004268C369164D2B400D6823F003031D438C
:1042A00024F400738C6843EA0423124CA04207D123
:1042B000CC6823F4006343EA042323F4806308E01A
:1042C0000D4CA04205D00D4CA04202D00C4CA04297
:1042D00007D14C6922F4405242EA04128C6942EA46
:1042E00004124260C5614968C163036230BD0000C9
:1042F0008FFFFEFF002C01400040014000440140C0
:104300000048014030B5046A026A22F48052026219
:104310004268C369114D24F400542B400D6823F406
:10432000407343EA05238D6844EA05340C4DA842E6
:1043300008D00C4DA84205D00B4DA84202D00B4D21
:10434000A84204D14D6922F4804242EA85124260BB
:10435000C36149680164046230BD0000FF8FFFFE45
:10436000002C014000400140004401400048014051
:1043700030B5046A026A22F4803202624268436DF8
:104380000F4D2B400D681D4324F400330C8943EA84
:1043900004430C4CA04208D00B4CA04205D00B4C5F
:1043A000A04202D00A4CA04204D14C6922F48032CF
:1043B00042EA04224260456549688165036230BD76
:1043C0008FFFFEFF002C01400040014000440140EF
:1043D0000048014030B5046A026A22F48012026289
:1043E0004268436D104D24F400142B400D6843EADD
:1043F00005230D8944EA05540C4DA84208D00C4D04
:10440000A84205D00B4DA84202D00B4DA84204D1C2
:104410004D6922F4802242EA852242604365496860
:10442000C165046230BD0000FF8FFFFE002C01401B
:1044300000400140004401400048014010B5036ABB
:10444000046A24F001040462846924F0F00444EA5C
:10445000021423F00A020A438461026210BD10B5FF
:10446000036A046A24F010040462846923F0A00340
:1044700024F4704444EA023243EA01118261016289
:1044800010BD90F82410090706D501684A68436BEF
:1044900022F400421A434A6090F82410C90706D05B
:1044A00001684A68836A22F400321A434A6090F82D
:1044B0002410890706D501684A68C36A22F480324D
:1044C0001A434A6090F82410490706D501684A68E3
:1044D000036B22F480221A434A6090F82410C90624
:1044E00006D501688A68836B22F480521A438A6079
:1044F00090F82410890606D501688A68C36B22F4F7
:1045000000521A438A6090F82410490611D50168B8
:104510004A68036C22F480121A434A60016CB1F5B8
:10452000801F06D101684A68436C22F4C0021A4316
:104530004A6090F82410090606D501684A68806C24
:1045400022F4002202434A6070472DE9F843002616
:104550000446C0F88460FDF7A7F98046206800682B
:104560004FF0200500076FF07E4712D5434600222A
:1045700029042046009700F065F950B1216851E800
:10458000000F20F0800041E80002002AF6D1E56724
:1045900021E020680068400722D5434600224FF4FE
:1045A00080012046009700F04DF9C8B1216851E81C
:1045B000000F20F4907041E80002002AF6D1206834
:1045C000083050E8001F21F0010140E80012002AE5
:1045D000F5D1C4F8805084F878600320BDE8F883F2
:1045E000E567C4F8805044F8606F66602676002066
:1045F000F4E710B5406A0021A0F85A10A0F8521054
:10460000FEF75FFF10BD70B5446AE06FD4F88050CC
:10461000216889684FF00006090606D5212804D1D3
:10462000A4F85260204600F060F8206880684006D8
:1046300006D5222D04D1A4F85A60204600F02FF8A8
:10464000D4F8840040F01000C4F884002046FEF73F
:1046500038FF70BD10B50146406A8969202916D01F
:104660000021A0F852100168083151E8002F22F013
:10467000800241E80023002BF5D1026852E8001FB8
:1046800041F0400142E80013002BF6D110BDFFF7C6
:1046900055F910BD10B5406AFFF751F910BD01681A
:1046A00051E8002F22F4907241E80023002BF6D14C
:1046B0000168083151E8002F22F0010241E800238F
:1046C000002BF5D1016E012908D1026852E8001FC4
:1046D00021F0100142E80013002BF6D12021C0F890
:1046E00080100021016681667047026852E8001F51
:1046F00021F0C00142E80013002BF6D12021C16750
:104700007047000070B5044680682169E26908437B
:10471000616900251143226808431168434B194021
:104720000143116020684168E26821F4405111435F
:104730004160A169206A084321688A6822F43062D6
:1047400002438A603A492068884210D13948006B98
:1047500010F0030011D0012805D0022805D003284D
:104760000DD102210CE004210AE0082108E03249C1
:10477000884202D03149884201D1002100E0102155
:10478000E3694FF400402E4A4FF6EF76834226D17C
:10479000092941D2DFE801F005080B400D404040F7
:1047A0001000FDF761FF06E0FDF776FF03E010461D
:1047B00002E0FDF789FF80B34100606801EB500122
:1047C000B1FBF0F0A0F11001B14225D84FF6F07125
:1047D0000140C0F3420001432068C16021E0092983
:1047E0001AD2DFE801F005080B190D19191910008C
:1047F000FDF73AFF06E0FDF74FFF03E0104602E049
:10480000FDF762FF48B1616800EB5100B0FBF1F0C9
:10481000A0F11001B14201D9012502E0216880B266
:10482000C8600020A066E066284670BDF369FFEF0F
:1048300000380140001002400044004000480040A1
:1048400000127A002DE9F047994617460D460446B6
:104850004FF00008089E33E0701C31D0FDF724F8BB
:10486000A0EB0900B04218D8BEB120680168490722
:1048700026D5802D24D0402D22D0C169C9430907F7
:104880000DD4082505622046FFF709FFC4F88450BF
:1048900084F878800120BDE8F0870320FBE7C06939
:1048A000C04300050CD421684FF400600862204624
:1048B000FFF7F5FE2020C4F8840084F87880ECE748
:1048C0002068C06935EA000004D00020B842C3D097
:1048D0000020E0E70120F9E70148FEF7F3BD000002
:1048E0001C0300202DE9F041D0F8C032D0F8B822E6
:1048F000CAB101EB810500EB85040026E7693FB1F1
:1049000003EBC5031B6AB7FBF3F503FB157323B178
:10491000C2F814620020BDE8F08100231A46E66167
:1049200000F086FCF6E70220F5E770B50546D0F802
:10493000B84200F082FBC4F80C02D5F8B80248B1C6
:10494000D5F8BC12D4F80402CA6804F50371904784
:10495000002070BD022070BD70B504460026812184
:1049600000F0BEFA002501212046E56200F0B8FA09
:1049700082212046C4F86C5100F0B2FA2564D4F8C4
:10498000B80248B1D4F8BC0204F52E7440688047E0
:10499000206800F01CFE2560304670BD10B5D0E9DF
:1049A000AE4159B194F80002FF2807D08B6894F803
:1049B000012221469847FF2084F80002002010BD04
:1049C0000A210180004870478C00002043210180AB
:1049D00000487047DC0000204321018000487047F8
:1049E00098000020432101800048704720010020EA
:1049F0002DE9F04104460026007C4FF400770125A4
:104A000090B3402302228121204600F06AFB40231C
:104A1000E56202220121204600F063FB0823032205
:104A200082212046C4F86C5100F05BFB4FF4077004
:104A3000256400F0CDFDC4F8B802F8B10546D4F8FD
:104A4000BC02006880470020C5F81402C5F81802AF
:104A5000207CD5F8042298B140230121204600F0A3
:104A60004CFB3046BDE8F081FFE73B460222812146
:104A7000204600F036FB3B46E562CAE70126F0E738
:104A80003B46EAE710B5D0F8B81269B1027C002ABB
:104A9000D1F8042205D04023012100F02EFB002094
:104AA00010BD4FF40073F7E7022010BD024602204C
:104AB000002902D00020C2F8BC127047D0F8B8021A
:104AC000C0F8041200207047D0F8B802C0F81022D5
:104AD000C0F80812002070472DE9FC410546D0F8C7
:104AE000B87200208DF80000ADF804000646087882
:104AF0000C4610F0600121D020293BD1E288AAB1F8
:104B00000006607807D5D5F8BC128B6839469847FF
:104B1000E288394626E087F80002A07987F801028A
:104B2000E2883946284600F06AF828E0D5F8BC1239
:104B3000607800228B682146984720E0607820B199
:104B40000A2809D00B2815D110E095F89C020328FB
:104B500010D1022201A905E095F89C02032809D191
:104B600001226946284600F064F808E095F89C02A6
:104B7000032804D02146284600F036F802263046A5
:104B8000BDE8FC8110B5D0F8B812A1B1D1F814225B
:104B90000AB1012010BD0122C1F81422D1F810225F
:104BA0000263B1F8102293B2D1F80822812100F0FB
:104BB0003FFB002010BD022010BD10B5D0F8B4227C
:104BC00052689047002010BD134610B50A460021D8
:104BD00000F093FA002010BD134610B50A460021DC
:104BE00000F026FB002010BD10B50446802100F027
:104BF00004FB2046BDE81040002100F0FEBA10B5CD
:104C00000323C0F85C21C0F89432C0F86021134639
:104C10000A46002100F071FA002010BD10B50521F0
:104C20000023C0F894121A46194600F066FA0020D4
:104C300010BD10B50223C261C0F89432026213465F
:104C40000A46002100F0F4FA002010BD10B504213E
:104C50000023C0F894121A46194600F0E9FA002021
:104C600010BD000010B50A46024903A000F0EAF8A2
:104C7000004810BDF006002043444320436F6E6699
:104C80006967000012200880004870473800002043
:104C900010B50A46024903A000F0D4F8004810BD40
:104CA000F0060020526F626F57616C6B65725F5047
:104CB0006F7765726D657465725F46530000000022
:104CC00004200880004870473400002010B50A46D0
:104CD000024903A000F0B6F8004810BDF00600201D
:104CE000526F626F57616C6B65725F506F77657260
:104CF0006D6574657200000010B50A46024903A094
:104D000000F0A0F8004810BDF006002053544D33C9
:104D100032205669727475616C20436F6D506F72EA
:104D20007400000010B51A2008800A480168001DB0
:104D30000468001D0068081809D008220649FEF71B
:104D400001FE0549042210312046FEF7FBFD024812
:104D5000801E10BDACF7FF1F4E000020F8B50446C2
:104D60000020ADF8000048880D46010A082948D205
:104D7000DFE801F04704091747473C45D4F8B01273
:104D8000207C0A6819E0207C02260028D4F8B402AE
:104D900005D0C16A68468847014646703EE0816A90
:104DA000F8E7C0B206282CD2DFE800F0030A10149E
:104DB000181CD4F8B002426805E0694690471CE030
:104DC000D4F8B0028268E2B1207CF6E7D4F8B002F1
:104DD000C268F8E7D4F8B0020269F4E7D4F8B00288
:104DE0004269F0E7D4F8B0028269ECE7207C40B970
:104DF000D4F8B402416B6846884701460EE0207C37
:104E000020B129462046FFF7EFFEF8BDD4F8B402E2
:104E1000016B68468847014607204870BDF80000CE
:104E200048B1EA8852B1824200D90246ADF800206A
:104E30002046FFF7FEFEE8880028E6D12046FFF76F
:104E400005FFF8BD70B5002300281ED004460025DC
:104E500002E06D1CEDB2641C2678002EF9D102240C
:104E600004EB450414801278CA545B1C0322CA5414
:104E700000245B1C06E0CA545B1CDAB28C54521C42
:104E8000D3B2401C0278002AF5D170BD01004FF06A
:104E9000000004D0012901D0022901D0022070476E
:104EA0000120704710B580B1D0F8B43213B100239F
:104EB000C0F8B43209B1C0F8B012012180F89C12D8
:104EC000027000F0BFF8002010BD022010BD10B528
:104ED000D0F8C002FCF70FFEBDE81040FFF7D6BFC8
:104EE00010B5D0F8C002FCF7E1FDBDE81040FFF7B7
:104EF000CDBF2DE9F0411746044651B1D4F8B402B4
:104F000042691AB194F89C02032851D00220BDE8EE
:104F1000F081D4F89432002504F11400022B03D060
:104F2000042B3AD0C3B33CE0D0E903639E4207D9D7
:104F3000F11AC1608AB239462046FFF74DFE12E0F1
:104F40008068B0FBF3F103FB110199B9984211D3CA
:104F5000D4F8981288420DD2002211462046FFF75D
:104F60003BFEC4F8985200231A461946204600F02A
:104F7000C4F816E0D4F8B402C16829B194F89C02D0
:104F8000032801D1204688478021204600F035F9CA
:104F90002046FFF743FE04E0FFE78021204600F0B3
:104FA0002CF994F8A002012804D184F8A05201E061
:104FB000204690470020AAE770B51546044649B13F
:104FC000D4F8B40282691AB194F89C02032830D054
:104FD000022070BDD4F8941204F5AA70032902D0FF
:104FE00005291ED027E0D0E903218A420BD9531AA4
:104FF000C3600846834200D303469AB2294620463E
:10500000FFF7E2FD17E0D4F8B402016929B194F882
:105010009C02032801D1204688472046FFF716FE50
:1050200009E000200146C4F89402204600F0E5F8AB
:1050300001E020469047002070BDD0F8C002FCF788
:105040009DBF000010B504461C481D49C0F8D04261
:10505000C4F8C00201600821017102214171C171CF
:1050600000214172C172FDF78DF808B1FBF712FB08
:105070000022D4F8C0021823114604F53074FCF75E
:10508000E3FC5823002280212068FCF7DDFCC023CC
:10509000002281212068FCF7D7FC4FF4887300229E
:1050A00001212068FCF7D0FC4FF48073002282219C
:1050B0002068FCF7C9FC002010BD0000B0090020EA
:1050C000005C00400A0601F07F01D0F8C00201EB4D
:1050D000810100EBC10001D5807C704790F852013E
:1050E000704710B51C461346D0F8C0022246FCF7A4
:1050F0004EFFBDE81040FFF7C9BE10B5D0F8C002A2
:10510000FCF771FFBDE81040FFF7C0BE70B500228C
:10511000044640231146FFF7E4FF40260125C4F86A
:1051200064613346002280212046C4F85851FFF7BD
:10513000D8FF6662A56184F89C520020C4F89402EE
:105140006060C4F8A402D4F8B80228B1D4F8B4025C
:105150000021426820469047002070BD90F89C12C4
:10516000042903D190F89D1280F89C12002070470A
:1051700010B590F89C12032904D1D0F8B412C96973
:1051800001B18847002010BD01740020704710B5A0
:10519000D0F8C002FDF785F8BDE81040FFF776BEF5
:1051A00070B5044600F52A70054600F04AF8012063
:1051B000C4F89402B4F8AE02C4F8980294F8A802B5
:1051C00010F01F010AD001290DD0022910D000F0E3
:1051D0008001204600F011F8002070BD29462046CD
:1051E00000F09DF8F8E72946204600F0C9F9F3E7FA
:1051F0002946204600F01CF9EEE710B5D0F8C002B1
:10520000FCF708FFBDE81040FFF740BE10B5D0F82E
:10521000C002FDF760F8BDE81040FFF737BE90F818
:105220009C1280F89D12042180F89C120020704787
:1052300010B5D0F8C002FCF71CFFBDE81040FFF726
:1052400025BE0A7802704A7842708A78CB7802EBE1
:10525000032242800A794B7902EB032282808A7909
:10526000C97902EB0121C18070470246002011B1CB
:10527000C2F8B41270470220704710B5D0F8B422BB
:1052800002241AB11268904700B90024204610BDCC
:1052900070B50E461E4D897804462970012931D813
:1052A00094F89C0202280BD003280FD031462046E8
:1052B000FFF79AFC29782046BDE87040FFF77DBCD7
:1052C000D9B10320616084F89C0209E071B1606883
:1052D000884212D0C1B22046FFF76FFC2978616086
:1052E0002046FFF7CAFF02280CD006E0022084F80F
:1052F0009C0220466160FFF760FC2046BDE87040DC
:10530000FFF7A4BC31462046BDE87040FFF76CBCF7
:105310008800002010B5FFF779FF002010BD2DE9AF
:10532000F0410A78002612F0600208D0202A01D04D
:10533000402A70D1D0F8B422926890476DE04B7843
:10534000002201250A2B66D2DFE803F0405D655795
:10535000650805652C29FFF701FD5EE00446888895
:10536000D8B9C888C8B94888802816D200F07F0705
:1053700094F89C02032810D084F89E723946204687
:10538000FFF705FF2046FFF761FC1FB1022084F8FC
:105390009C0242E084F89C523FE020463BE0FFF74D
:1053A00077FF3AE0CB88012B35D190F89C32012B66
:1053B00004D0022B02D0032B2DD104E08260012205
:1053C00000F1080116E00122011D13E090F89C2273
:1053D000012A03D0022A01D0032A1CD1CA88022A3A
:1053E00019D1C560D0F8A41209B10321C16002220D
:1053F00000F10C01FFF71DFC0FE0498801290CD1D9
:10540000C0F8A45211E090F89C32012B08D0022B76
:1054100006D0032B04D0FFF7E7FB3046BDE8F08150
:1054200049880129F9D1C0F8A422FFF70FFCF4E75D
:105430002DE9F0410A46044610780027097910F05A
:1054400060030AD0202B01D0402B50D1D4F8B402F5
:1054500011468368204698478FE0C0F34110012829
:1054600006D05078D0B301282AD003283FD107E0D6
:10547000D4F8B402114683682046BDE8F0411847CD
:1054800094F89C02022802D0032872D10AE071B37A
:1054900080296ED02046FFF7B0FE80212046FFF71E
:1054A000ACFE6AE0508838B931B1802904D0D08888
:1054B00010B92046FFF7A1FE2046FFF7C7FB5CE0CE
:1054C00094F89C020228E2D0032852D1508898BB5D
:1054D0004806F1D02046FFF7FAFCEDE7FFE794F825
:1054E0009C020026022803D0032842D112E040E0AB
:1054F00009B180293DD1080601F07F0000EB800052
:1055000004EB800101D5143101E001F5AA710222FA
:105510000E602AE0080601F00F0000EB800004EBAB
:1055200080000AD5806920B301F07F0000EB800085
:1055300004EB800514350BE01FE0D0F85801C0B132
:1055400001F07F0000EB800004EB800505F5AA75F3
:1055500041B1802906D02046FFF7B4FD10B10120EB
:10556000286000E02E60022229462046FFF761FBFA
:1055700003E011462046FFF737FB3846BDE8F081CF
:1055800070B5054608780C4610F0600003D020285E
:1055900001D0402816D195F89C02012803D002289A
:1055A00001D003280ED1207901280BD8D5F8B402F8
:1055B000826828469047E188014306D12846FFF7D4
:1055C00045FB02E02846FFF70FFB002070BD704747
:1055D00000487047900700202DE9F0470C7800261E
:1055E00030F8243048F68F121340CA78002A79D058
:1055F000012A7DD0022A02D0032A76D0012648F261
:105600008002134320F824300D7830F8253048F616
:105610008F7423402B43134320F825300D7B48F231
:10562000C00948F6BF734CF2800A4BF68F77E5B39A
:10563000CD7891F800C0022D30F82C507ED048F67D
:105640008F6805EA0805154320F82C50B0F8505033
:1056500091F800C0054405EBCC05B1F808C02CF06A
:10566000010CA5F800C4B0F8505091F800C00544F2
:1056700005EBCC05B1F80AC02CF0010CA5F804C468
:105680004D7891F800C0002D30F82C504FEA454578
:105690007ED0002D06DA30F82C50254045EA0A0568
:1056A00020F82C5091F800C000E024E030F82C5095
:1056B0006D0606D530F82C50254045EA090520F83E
:1056C0002C50CC780D78012C30F8254004EA0304E6
:1056D0007ED084F02003134320F82530BDE001E0A4
:1056E00006E002E043F4007389E743F4C06386E711
:1056F00043F4806383E74D784DB3B0F850500F7892
:10570000054405EBC705CF8827F00107A5F800740D
:105710000F7830F827506D0606D530F82750254011
:1057200045EA090520F82750CC78012C07D00C78E1
:1057300030F82410194081F0200104E064E00C7876
:1057400030F824101940114320F824108CE0B0F8F0
:1057500050300D78034403EBC503CD8825F00105D7
:10576000A3F80454B0F850300D78034403EBC5039C
:10577000B3F80654C5F30905A3F806540D6903F2FE
:1057800006437DB13E2D11D84FEA550CED0700E0E0
:1057900040E001D00CF1010C1D884FF6FF7808EABB
:1057A0008C2C0EE01D8845F400450CE04FEA551C9A
:1057B000ED0601D1ACF1010C1D884FF4004848EA18
:1057C0008C2C45EA0C051D800D7830F8253000E062
:1057D00040E05B0406D530F82530234043EA0A0355
:1057E00020F82530097841B130F821303B4083F46E
:1057F0000053134320F8213036E00188394081F40A
:105800004051114301802FE0254048F2801845EABD
:10581000080519E7002D06DA30F82C50254045EA36
:105820000A0520F82C5091F800C030F82C506D0675
:1058300006D530F82C50254045EA090520F82C50B3
:105840000D7830F825403C4084F44054144320F84F
:10585000254074E7144320F825400B7830F82310D6
:105860003940114320F823103046BDE8F0872DE978
:10587000F04391F80C804F780A7848F6BF7C4BF6DD
:105880008F7948F2800348F2C0054CF2800648F652
:105890008F74B8F1000F28D0002F30F822704FEA33
:1058A000474748D0002F05DA30F8227027403743A9
:1058B00020F822700A7830F822707F0605D530F87B
:1058C000227027402F4320F822700D7830F82520D1
:1058D0002240324320F825200C7830F8242002EAB8
:1058E0000C021A4320F824201AE07FB130F822601D
:1058F000760605D530F8226026402E4320F8226037
:105900000A7830F8221001EA0C010EE030F822503B
:105910006D0405D530F822502540354320F822503B
:105920000A7830F8221001EA0901194320F8221000
:105930000020BDE8F083002F05DA30F82270274000
:10594000374320F822700A7830F82260760605D5B1
:1059500030F8226026402E4320F822600E7830F87E
:10596000262022402A4320F826200C7830F82420D4
:1059700002EA09021A4320F82420C1E700207047F8
:10598000012120F8401F002101808180018208460A
:10599000704730F8401F21F43F41018000207047DC
:1059A00030B50A7BB2BB4A7848F68F7548F280045E
:1059B000C2B10B7830F82320520607D530F82320E7
:1059C0002A4048F2C0052A4320F82320CA78012A39
:1059D00020D00A7830F8221048F6BF73194081F0C1
:1059E000200114E00A7830F822305B0407D530F843
:1059F00022302B404CF280052B4320F822300A78CD
:105A000030F822104BF68F73194081F44051214336
:105A100020F82210002030BD10B54A780978002AFD
:105A200048F2800330F8212005D048F6BF742240A8
:105A300082F0100204E04BF68F74224082F4805210
:105A40001A4320F82120002010BD2DE9F0470D4613
:105A50004B78097B04464FF0000948F68F7248F2F4
:105A6000800A4FF6FF774FF40048012B09D0002938
:105A70006FD0E87802286DD001286CD00120BDE8F5
:105A8000F087AE692869864200D9064691B1E97867
:105A900002291ED0286A801B2862287834F820103A
:105AA0004906B4F85010214401EBC00073D5A0F8AA
:105AB000066416E1B3B2EA882046696900F070FA1C
:105AC000B4F850002978204400EBC100A0F802642B
:105AD0000DE1296A814278D9297834F821001040F3
